{
  "contractName": "HotPotLPStakePool",
  "abi": [
    {
      "inputs": [
        {
          "internalType": "address",
          "name": "_hotpotNFT",
          "type": "address"
        },
        {
          "internalType": "address",
          "name": "_hotpotERC20",
          "type": "address"
        },
        {
          "internalType": "address",
          "name": "_loan",
          "type": "address"
        },
        {
          "internalType": "address",
          "name": "_reward",
          "type": "address"
        },
        {
          "internalType": "address",
          "name": "_invite",
          "type": "address"
        },
        {
          "internalType": "uint256",
          "name": "_starttime",
          "type": "uint256"
        },
        {
          "internalType": "uint256",
          "name": "duration",
          "type": "uint256"
        },
        {
          "internalType": "uint256",
          "name": "_rewardAmount",
          "type": "uint256"
        },
        {
          "internalType": "address",
          "name": "_uniFactory",
          "type": "address"
        },
        {
          "internalType": "address",
          "name": "_ethAddress",
          "type": "address"
        }
      ],
      "stateMutability": "nonpayable",
      "type": "constructor"
    },
    {
      "anonymous": false,
      "inputs": [
        {
          "indexed": true,
          "internalType": "address",
          "name": "previousOwner",
          "type": "address"
        },
        {
          "indexed": true,
          "internalType": "address",
          "name": "newOwner",
          "type": "address"
        }
      ],
      "name": "OwnershipTransferred",
      "type": "event"
    },
    {
      "anonymous": false,
      "inputs": [
        {
          "indexed": false,
          "internalType": "address",
          "name": "account",
          "type": "address"
        }
      ],
      "name": "Paused",
      "type": "event"
    },
    {
      "anonymous": false,
      "inputs": [
        {
          "indexed": true,
          "internalType": "address",
          "name": "dst",
          "type": "address"
        },
        {
          "indexed": false,
          "internalType": "uint256",
          "name": "sad",
          "type": "uint256"
        }
      ],
      "name": "Rescue",
      "type": "event"
    },
    {
      "anonymous": false,
      "inputs": [
        {
          "indexed": true,
          "internalType": "address",
          "name": "dst",
          "type": "address"
        },
        {
          "indexed": true,
          "internalType": "address",
          "name": "token",
          "type": "address"
        },
        {
          "indexed": false,
          "internalType": "uint256",
          "name": "sad",
          "type": "uint256"
        }
      ],
      "name": "RescueToken",
      "type": "event"
    },
    {
      "anonymous": false,
      "inputs": [
        {
          "indexed": false,
          "internalType": "uint256",
          "name": "reward",
          "type": "uint256"
        }
      ],
      "name": "RewardChanged",
      "type": "event"
    },
    {
      "anonymous": false,
      "inputs": [
        {
          "indexed": true,
          "internalType": "address",
          "name": "user",
          "type": "address"
        },
        {
          "indexed": false,
          "internalType": "uint256",
          "name": "reward",
          "type": "uint256"
        },
        {
          "indexed": false,
          "internalType": "uint256",
          "name": "percent",
          "type": "uint256"
        }
      ],
      "name": "RewardPaid",
      "type": "event"
    },
    {
      "anonymous": false,
      "inputs": [
        {
          "indexed": true,
          "internalType": "address",
          "name": "user",
          "type": "address"
        },
        {
          "indexed": false,
          "internalType": "uint256",
          "name": "amount",
          "type": "uint256"
        }
      ],
      "name": "Staked",
      "type": "event"
    },
    {
      "anonymous": false,
      "inputs": [
        {
          "indexed": false,
          "internalType": "address",
          "name": "account",
          "type": "address"
        }
      ],
      "name": "Unpaused",
      "type": "event"
    },
    {
      "anonymous": false,
      "inputs": [
        {
          "indexed": true,
          "internalType": "address",
          "name": "user",
          "type": "address"
        },
        {
          "indexed": false,
          "internalType": "uint256",
          "name": "amount",
          "type": "uint256"
        }
      ],
      "name": "Withdrawn",
      "type": "event"
    },
    {
      "inputs": [],
      "name": "DURATION",
      "outputs": [
        {
          "internalType": "uint256",
          "name": "",
          "type": "uint256"
        }
      ],
      "stateMutability": "view",
      "type": "function",
      "constant": true
    },
    {
      "inputs": [
        {
          "internalType": "address",
          "name": "account",
          "type": "address"
        }
      ],
      "name": "balanceOf",
      "outputs": [
        {
          "internalType": "uint256",
          "name": "",
          "type": "uint256"
        }
      ],
      "stateMutability": "view",
      "type": "function",
      "constant": true
    },
    {
      "inputs": [
        {
          "internalType": "address",
          "name": "account",
          "type": "address"
        }
      ],
      "name": "earned",
      "outputs": [
        {
          "internalType": "uint256",
          "name": "",
          "type": "uint256"
        }
      ],
      "stateMutability": "view",
      "type": "function",
      "constant": true
    },
    {
      "inputs": [],
      "name": "erc20",
      "outputs": [
        {
          "internalType": "contract IERC20",
          "name": "",
          "type": "address"
        }
      ],
      "stateMutability": "view",
      "type": "function",
      "constant": true
    },
    {
      "inputs": [],
      "name": "erc721",
      "outputs": [
        {
          "internalType": "contract IERC721",
          "name": "",
          "type": "address"
        }
      ],
      "stateMutability": "view",
      "type": "function",
      "constant": true
    },
    {
      "inputs": [],
      "name": "freeRewardRatio",
      "outputs": [
        {
          "internalType": "uint256",
          "name": "",
          "type": "uint256"
        }
      ],
      "stateMutability": "view",
      "type": "function",
      "constant": true
    },
    {
      "inputs": [],
      "name": "getBlockTime",
      "outputs": [
        {
          "internalType": "uint256",
          "name": "",
          "type": "uint256"
        }
      ],
      "stateMutability": "view",
      "type": "function",
      "constant": true
    },
    {
      "inputs": [],
      "name": "getPoolBalance",
      "outputs": [
        {
          "internalType": "uint256",
          "name": "",
          "type": "uint256"
        }
      ],
      "stateMutability": "view",
      "type": "function",
      "constant": true
    },
    {
      "inputs": [
        {
          "internalType": "uint256",
          "name": "_tokenId",
          "type": "uint256"
        }
      ],
      "name": "getRewardByNFT",
      "outputs": [],
      "stateMutability": "nonpayable",
      "type": "function"
    },
    {
      "inputs": [],
      "name": "getRewardFree",
      "outputs": [],
      "stateMutability": "nonpayable",
      "type": "function"
    },
    {
      "inputs": [],
      "name": "grade1RewardRatio",
      "outputs": [
        {
          "internalType": "uint256",
          "name": "",
          "type": "uint256"
        }
      ],
      "stateMutability": "view",
      "type": "function",
      "constant": true
    },
    {
      "inputs": [],
      "name": "grade2RewardRatio",
      "outputs": [
        {
          "internalType": "uint256",
          "name": "",
          "type": "uint256"
        }
      ],
      "stateMutability": "view",
      "type": "function",
      "constant": true
    },
    {
      "inputs": [],
      "name": "grade3RewardRatio",
      "outputs": [
        {
          "internalType": "uint256",
          "name": "",
          "type": "uint256"
        }
      ],
      "stateMutability": "view",
      "type": "function",
      "constant": true
    },
    {
      "inputs": [],
      "name": "hotpot",
      "outputs": [
        {
          "internalType": "contract IHotPot",
          "name": "",
          "type": "address"
        }
      ],
      "stateMutability": "view",
      "type": "function",
      "constant": true
    },
    {
      "inputs": [],
      "name": "invite",
      "outputs": [
        {
          "internalType": "contract IInvite",
          "name": "",
          "type": "address"
        }
      ],
      "stateMutability": "view",
      "type": "function",
      "constant": true
    },
    {
      "inputs": [
        {
          "internalType": "address",
          "name": "",
          "type": "address"
        }
      ],
      "name": "lastRewardTime",
      "outputs": [
        {
          "internalType": "uint256",
          "name": "",
          "type": "uint256"
        }
      ],
      "stateMutability": "view",
      "type": "function",
      "constant": true
    },
    {
      "inputs": [],
      "name": "lastTimeRewardApplicable",
      "outputs": [
        {
          "internalType": "uint256",
          "name": "",
          "type": "uint256"
        }
      ],
      "stateMutability": "view",
      "type": "function",
      "constant": true
    },
    {
      "inputs": [],
      "name": "lastUpdateTime",
      "outputs": [
        {
          "internalType": "uint256",
          "name": "",
          "type": "uint256"
        }
      ],
      "stateMutability": "view",
      "type": "function",
      "constant": true
    },
    {
      "inputs": [],
      "name": "loan",
      "outputs": [
        {
          "internalType": "contract ILoan",
          "name": "",
          "type": "address"
        }
      ],
      "stateMutability": "view",
      "type": "function",
      "constant": true
    },
    {
      "inputs": [
        {
          "internalType": "uint256",
          "name": "reward",
          "type": "uint256"
        }
      ],
      "name": "notifyRewardAmount",
      "outputs": [],
      "stateMutability": "nonpayable",
      "type": "function"
    },
    {
      "inputs": [],
      "name": "owner",
      "outputs": [
        {
          "internalType": "address",
          "name": "",
          "type": "address"
        }
      ],
      "stateMutability": "view",
      "type": "function",
      "constant": true
    },
    {
      "inputs": [],
      "name": "pause",
      "outputs": [],
      "stateMutability": "nonpayable",
      "type": "function"
    },
    {
      "inputs": [],
      "name": "paused",
      "outputs": [
        {
          "internalType": "bool",
          "name": "",
          "type": "bool"
        }
      ],
      "stateMutability": "view",
      "type": "function",
      "constant": true
    },
    {
      "inputs": [],
      "name": "periodFinish",
      "outputs": [
        {
          "internalType": "uint256",
          "name": "",
          "type": "uint256"
        }
      ],
      "stateMutability": "view",
      "type": "function",
      "constant": true
    },
    {
      "inputs": [],
      "name": "renounceOwnership",
      "outputs": [],
      "stateMutability": "nonpayable",
      "type": "function"
    },
    {
      "inputs": [
        {
          "internalType": "address",
          "name": "to_",
          "type": "address"
        },
        {
          "internalType": "contract IERC20",
          "name": "token_",
          "type": "address"
        },
        {
          "internalType": "uint256",
          "name": "amount_",
          "type": "uint256"
        }
      ],
      "name": "rescue",
      "outputs": [],
      "stateMutability": "nonpayable",
      "type": "function"
    },
    {
      "inputs": [
        {
          "internalType": "address payable",
          "name": "to_",
          "type": "address"
        },
        {
          "internalType": "uint256",
          "name": "amount_",
          "type": "uint256"
        }
      ],
      "name": "rescue",
      "outputs": [],
      "stateMutability": "nonpayable",
      "type": "function"
    },
    {
      "inputs": [],
      "name": "rewardContract",
      "outputs": [
        {
          "internalType": "address",
          "name": "",
          "type": "address"
        }
      ],
      "stateMutability": "view",
      "type": "function",
      "constant": true
    },
    {
      "inputs": [],
      "name": "rewardDistribution",
      "outputs": [
        {
          "internalType": "address",
          "name": "",
          "type": "address"
        }
      ],
      "stateMutability": "view",
      "type": "function",
      "constant": true
    },
    {
      "inputs": [],
      "name": "rewardPerToken",
      "outputs": [
        {
          "internalType": "uint256",
          "name": "",
          "type": "uint256"
        }
      ],
      "stateMutability": "view",
      "type": "function",
      "constant": true
    },
    {
      "inputs": [],
      "name": "rewardPerTokenStored",
      "outputs": [
        {
          "internalType": "uint256",
          "name": "",
          "type": "uint256"
        }
      ],
      "stateMutability": "view",
      "type": "function",
      "constant": true
    },
    {
      "inputs": [],
      "name": "rewardRate",
      "outputs": [
        {
          "internalType": "uint256",
          "name": "",
          "type": "uint256"
        }
      ],
      "stateMutability": "view",
      "type": "function",
      "constant": true
    },
    {
      "inputs": [],
      "name": "rewardRatio",
      "outputs": [
        {
          "internalType": "uint256",
          "name": "",
          "type": "uint256"
        }
      ],
      "stateMutability": "view",
      "type": "function",
      "constant": true
    },
    {
      "inputs": [
        {
          "internalType": "address",
          "name": "",
          "type": "address"
        }
      ],
      "name": "rewards",
      "outputs": [
        {
          "internalType": "uint256",
          "name": "",
          "type": "uint256"
        }
      ],
      "stateMutability": "view",
      "type": "function",
      "constant": true
    },
    {
      "inputs": [
        {
          "internalType": "address",
          "name": "_addr",
          "type": "address"
        }
      ],
      "name": "setInvite",
      "outputs": [],
      "stateMutability": "nonpayable",
      "type": "function"
    },
    {
      "inputs": [
        {
          "internalType": "address",
          "name": "_addr",
          "type": "address"
        }
      ],
      "name": "setLoan",
      "outputs": [],
      "stateMutability": "nonpayable",
      "type": "function"
    },
    {
      "inputs": [
        {
          "internalType": "address",
          "name": "_addr",
          "type": "address"
        }
      ],
      "name": "setRewardContract",
      "outputs": [],
      "stateMutability": "nonpayable",
      "type": "function"
    },
    {
      "inputs": [
        {
          "internalType": "address",
          "name": "_rewardDistribution",
          "type": "address"
        }
      ],
      "name": "setRewardDistribution",
      "outputs": [],
      "stateMutability": "nonpayable",
      "type": "function"
    },
    {
      "inputs": [
        {
          "internalType": "uint256",
          "name": "amount",
          "type": "uint256"
        }
      ],
      "name": "stake",
      "outputs": [],
      "stateMutability": "nonpayable",
      "type": "function"
    },
    {
      "inputs": [],
      "name": "starttime",
      "outputs": [
        {
          "internalType": "uint256",
          "name": "",
          "type": "uint256"
        }
      ],
      "stateMutability": "view",
      "type": "function",
      "constant": true
    },
    {
      "inputs": [],
      "name": "tokenAddr",
      "outputs": [
        {
          "internalType": "contract IERC20",
          "name": "",
          "type": "address"
        }
      ],
      "stateMutability": "view",
      "type": "function",
      "constant": true
    },
    {
      "inputs": [],
      "name": "totalSupply",
      "outputs": [
        {
          "internalType": "uint256",
          "name": "",
          "type": "uint256"
        }
      ],
      "stateMutability": "view",
      "type": "function",
      "constant": true
    },
    {
      "inputs": [
        {
          "internalType": "address",
          "name": "newOwner",
          "type": "address"
        }
      ],
      "name": "transferOwnership",
      "outputs": [],
      "stateMutability": "nonpayable",
      "type": "function"
    },
    {
      "inputs": [],
      "name": "uniswapFactory",
      "outputs": [
        {
          "internalType": "contract IUniswapV2Factory",
          "name": "",
          "type": "address"
        }
      ],
      "stateMutability": "view",
      "type": "function",
      "constant": true
    },
    {
      "inputs": [],
      "name": "unpause",
      "outputs": [],
      "stateMutability": "nonpayable",
      "type": "function"
    },
    {
      "inputs": [
        {
          "internalType": "address",
          "name": "",
          "type": "address"
        }
      ],
      "name": "userRewardPerTokenPaid",
      "outputs": [
        {
          "internalType": "uint256",
          "name": "",
          "type": "uint256"
        }
      ],
      "stateMutability": "view",
      "type": "function",
      "constant": true
    },
    {
      "inputs": [
        {
          "internalType": "uint256",
          "name": "amount",
          "type": "uint256"
        }
      ],
      "name": "withdraw",
      "outputs": [],
      "stateMutability": "nonpayable",
      "type": "function"
    }
  ],
  "bytecode": "0x608060405262093a80600c55635f734bf0600d556000600e556000600f556014601355601480556019601555601e601655601e6017553480156200004257600080fd5b50604051620034893803806200348983398181016040526101408110156200006957600080fd5b508051602082015160408301516060840151608085015160a086015160c087015160e08801516101008901516101209099015197989697959694959394929391929091888a818a8a8a8a8a8a6000620000ca6001600160e01b03620002df16565b600380546001600160a01b0319166001600160a01b038316908117909155604051919250906000907f8be0079c531659141344cd1fd0a4f28419497f9722a3daafe3b4186f6b6457e0908290a3506004805460ff60a01b191690556001600555600080546001600160a01b03199081166001600160a01b038c8116919091179092556007805482168b8416908117909155600a8054831688851617905560088054831690911790556006805482168a8416179055600980548216898416179055600b8054909116918716919091179055620001a4620002df565b600480546001600160a01b0319166001600160a01b0392909216919091179055600d839055600c829055620001d981620002e3565b50505050506001600160a01b03861615159350620002109250505057735c69bee701ef814a2b6a3edd4b1652cb9cc5aa6f62000212565b815b601a80546001600160a01b0319166001600160a01b039283161790819055604080516364e329cb60e11b815284841660048201528c841660248201529051600093929092169163c9c653969160448082019260209290919082900301818787803b1580156200028057600080fd5b505af115801562000295573d6000803e3d6000fd5b505050506040513d6020811015620002ac57600080fd5b5051600080546001600160a01b0319166001600160a01b0390921691909117905550620007089950505050505050505050565b3390565b600d54421115620003f957600e544210620003305762000314600c54826200046460201b6200213b1790919060201c565b600f556200032a6001600160e01b03620004b716565b620003ab565b60006200034e42600e546200050160201b620020991790919060201c565b905060006200036e600f54836200054b60201b620020e21790919060201c565b9050620003a5600c54620003918386620005a960201b6200217d1790919060201c565b6200046460201b6200213b1790919060201c565b600f5550505b42601081905550620003ce600c5442620005a960201b6200217d1790919060201c565b600e55604080518281529051600080516020620034698339815191529181900360200190a162000461565b62000415600c54826200046460201b6200213b1790919060201c565b600f55600d546010819055600c546200043b9190620005a9602090811b6200217d17901c565b600e55604080518281529051600080516020620034698339815191529181900360200190a15b50565b6000620004ae83836040518060400160405280601a81526020017f536166654d6174683a206469766973696f6e206279207a65726f0000000000008152506200060460201b60201c565b90505b92915050565b600a60135410620004d457600260135481620004cf57fe5b046013555b60145460141415620004ff576014805460041990810190915560158054820190556016805490910190555b565b6000620004ae83836040518060400160405280601e81526020017f536166654d6174683a207375627472616374696f6e206f766572666c6f770000815250620006ab60201b60201c565b6000826200055c57506000620004b1565b828202828482816200056a57fe5b0414620004ae5760405162461bcd60e51b8152600401808060200182810382526021815260200180620034486021913960400191505060405180910390fd5b600082820183811015620004ae576040805162461bcd60e51b815260206004820152601b60248201527f536166654d6174683a206164646974696f6e206f766572666c6f770000000000604482015290519081900360640190fd5b60008183620006945760405162461bcd60e51b81526004018080602001828103825283818151815260200191508051906020019080838360005b83811015620006585781810151838201526020016200063e565b50505050905090810190601f168015620006865780820380516001836020036101000a031916815260200191505b509250505060405180910390fd5b506000838581620006a157fe5b0495945050505050565b60008184841115620007005760405162461bcd60e51b8152602060048201818152835160248401528351909283926044909101919085019080838360008315620006585781810151838201526020016200063e565b505050900390565b612d3080620007186000396000f3fe608060405234801561001057600080fd5b50600436106103145760003560e01c806370a08231116101a75780638da5cb5b116100ee578063d285b7b411610097578063eec30bfd11610071578063eec30bfd14610671578063f0bc9fa714610679578063f2fde38b1461068157610314565b8063d285b7b414610659578063df136d6514610661578063ebe2b12b1461066957610314565b8063bca6ce64116100c8578063bca6ce6414610641578063c8f33c9114610649578063cd3daf9d1461065157610314565b80638da5cb5b14610614578063a694fc3a1461061c578063abd70aa21461063957610314565b806380faa57d116101505780638b8763471161012a5780638b876347146105de5780638bdb2afa146106045780638da588971461060c57610314565b806380faa57d146105c65780638456cb59146105ce57806387ceff09146105d657610314565b80637a4e4ecf116101815780637a4e4ecf1461058a5780637b087fde146105b65780637b0a47ee146105be57610314565b806370a0823114610554578063715018a61461057a578063785e9e861461058257610314565b80633f4ba83a1161026b5780635c975abb116102145780635fbe4d1d116101ee5780635fbe4d1d1461053c578063646033bc146105445780636ea69d621461054c57610314565b80635c975abb146104f25780635cab2c081461050e5780635e0ab6801461053457610314565b8063430a063511610245578063430a0635146104a757806347a005c6146104af57806351508f0a146104cc57610314565b80633f4ba83a1461047157806341f7b09214610479578063424ad03d1461049f57610314565b806318160ddd116102cd5780632e1a7d4d116102a75780632e1a7d4d146104115780633b5d441e1461042e5780633c6b16ab1461045457610314565b806318160ddd146103cb5780631be05289146103d357806320ff430b146103db57610314565b80630d68b761116102fe5780630d68b76114610377578063101114cf1461039f57806315ea88c4146103c357610314565b80628cc262146103195780630700037d14610351575b600080fd5b61033f6004803603602081101561032f57600080fd5b50356001600160a01b03166106a7565b60408051918252519081900360200190f35b61033f6004803603602081101561036757600080fd5b50356001600160a01b031661072d565b61039d6004803603602081101561038d57600080fd5b50356001600160a01b031661073f565b005b6103a76107e3565b604080516001600160a01b039092168252519081900360200190f35b6103a76107f2565b61033f610801565b61033f610808565b61039d600480360360608110156103f157600080fd5b506001600160a01b0381358116916020810135909116906040013561080e565b61039d6004803603602081101561042757600080fd5b5035610ac2565b61033f6004803603602081101561044457600080fd5b50356001600160a01b0316610c6e565b61039d6004803603602081101561046a57600080fd5b5035610c80565b61039d610d42565b61039d6004803603602081101561048f57600080fd5b50356001600160a01b0316610db6565b61039d610ebd565b61033f611168565b61039d600480360360208110156104c557600080fd5b503561116e565b61039d600480360360208110156104e257600080fd5b50356001600160a01b03166116f1565b6104fa6117f8565b604080519115158252519081900360200190f35b61039d6004803603602081101561052457600080fd5b50356001600160a01b0316611819565b61033f611920565b6103a7611926565b61033f611935565b6103a761193b565b61033f6004803603602081101561056a57600080fd5b50356001600160a01b031661194a565b61039d611965565b6103a7611a31565b61039d600480360360408110156105a057600080fd5b506001600160a01b038135169060200135611a40565b61033f611bd4565b61033f611bda565b61033f611be0565b61039d611bf3565b61033f611c65565b61033f600480360360208110156105f457600080fd5b50356001600160a01b0316611c69565b6103a7611c7b565b61033f611c8a565b6103a7611c90565b61039d6004803603602081101561063257600080fd5b5035611c9f565b61033f611e48565b6103a7611edd565b61033f611eec565b61033f611ef2565b6103a7611f46565b61033f611f55565b61033f611f5b565b6103a7611f61565b61033f611f70565b61039d6004803603602081101561069757600080fd5b50356001600160a01b0316611f76565b6001600160a01b0381166000908152601960209081526040808320546018909252822054610727919061071b90670de0b6b3a76400009061070f906106fa906106ee611ef2565b9063ffffffff61209916565b6107038861194a565b9063ffffffff6120e216565b9063ffffffff61213b16565b9063ffffffff61217d16565b92915050565b60196020526000908152604090205481565b6107476121d7565b6003546001600160a01b039081169116146107a9576040805162461bcd60e51b815260206004820181905260248201527f4f776e61626c653a2063616c6c6572206973206e6f7420746865206f776e6572604482015290519081900360640190fd5b600480547fffffffffffffffffffffffff0000000000000000000000000000000000000000166001600160a01b0392909216919091179055565b6004546001600160a01b031681565b6007546001600160a01b031681565b6001545b90565b600c5481565b6108166121d7565b6003546001600160a01b03908116911614610878576040805162461bcd60e51b815260206004820181905260248201527f4f776e61626c653a2063616c6c6572206973206e6f7420746865206f776e6572604482015290519081900360640190fd5b6001600160a01b0383166108d3576040805162461bcd60e51b815260206004820152600a60248201527f6d757374206e6f74203000000000000000000000000000000000000000000000604482015290519081900360640190fd5b60008111610928576040805162461bcd60e51b815260206004820152600960248201527f6d75737420677420300000000000000000000000000000000000000000000000604482015290519081900360640190fd5b6006546001600160a01b038381169116141561098b576040805162461bcd60e51b815260206004820152600e60248201527f6d757374206e6f74206572633230000000000000000000000000000000000000604482015290519081900360640190fd5b6000546001600160a01b03838116911614156109ee576040805162461bcd60e51b815260206004820152601560248201527f6d757374206e6f74207468697320706c546f6b656e0000000000000000000000604482015290519081900360640190fd5b816001600160a01b031663a9059cbb84836040518363ffffffff1660e01b815260040180836001600160a01b03166001600160a01b0316815260200182815260200192505050602060405180830381600087803b158015610a4e57600080fd5b505af1158015610a62573d6000803e3d6000fd5b505050506040513d6020811015610a7857600080fd5b50506040805182815290516001600160a01b0380851692908616917faabf44ab9d5bef08d1b60f287a337f0d11a248e49741ad189b429e47e98ba9109181900360200190a3505050565b33610acb611ef2565b601155610ad6611be0565b6010556001600160a01b03811615610b1d57610af1816106a7565b6001600160a01b0382166000908152601960209081526040808320939093556011546018909152919020555b60026005541415610b75576040805162461bcd60e51b815260206004820152601f60248201527f5265656e7472616e637947756172643a207265656e7472616e742063616c6c00604482015290519081900360640190fd5b6002600555600d54421015610bd1576040805162461bcd60e51b815260206004820152600960248201527f6e6f742073746172740000000000000000000000000000000000000000000000604482015290519081900360640190fd5b60008211610c26576040805162461bcd60e51b815260206004820152601160248201527f43616e6e6f742077697468647261772030000000000000000000000000000000604482015290519081900360640190fd5b610c2f826121db565b60408051838152905133917f7084f5476618d8e60b11ef0d7d3f06914655adb8793e28ff7f018d4c76d505d5919081900360200190a250506001600555565b60126020526000908152604090205481565b6004546001600160a01b0316610c946121d7565b6001600160a01b031614610cd95760405162461bcd60e51b8152600401808060200182810382526021815260200180612c8c6021913960400191505060405180910390fd5b6000610ce3611ef2565b601155610cee611be0565b6010556001600160a01b03811615610d3557610d09816106a7565b6001600160a01b0382166000908152601960209081526040808320939093556011546018909152919020555b610d3e8261223f565b5050565b610d4a6121d7565b6003546001600160a01b03908116911614610dac576040805162461bcd60e51b815260206004820181905260248201527f4f776e61626c653a2063616c6c6572206973206e6f7420746865206f776e6572604482015290519081900360640190fd5b610db4612384565b565b610dbe6121d7565b6003546001600160a01b03908116911614610e20576040805162461bcd60e51b815260206004820181905260248201527f4f776e61626c653a2063616c6c6572206973206e6f7420746865206f776e6572604482015290519081900360640190fd5b610e32816001600160a01b0316612461565b610e83576040805162461bcd60e51b815260206004820152601060248201527f4d75737420626520636f6e747261637400000000000000000000000000000000604482015290519081900360640190fd5b600980547fffffffffffffffffffffffff0000000000000000000000000000000000000000166001600160a01b0392909216919091179055565b33610ec6611ef2565b601155610ed1611be0565b6010556001600160a01b03811615610f1857610eec816106a7565b6001600160a01b0382166000908152601960209081526040808320939093556011546018909152919020555b600d54421015610f6f576040805162461bcd60e51b815260206004820152600960248201527f6e6f742073746172740000000000000000000000000000000000000000000000604482015290519081900360640190fd5b60026005541415610fc7576040805162461bcd60e51b815260206004820152601f60248201527f5265656e7472616e637947756172643a207265656e7472616e742063616c6c00604482015290519081900360640190fd5b600260055560045474010000000000000000000000000000000000000000900460ff161561103c576040805162461bcd60e51b815260206004820152601060248201527f5061757361626c653a2070617573656400000000000000000000000000000000604482015290519081900360640190fd5b336000908152601260205260409020544262015180909101106110a6576040805162461bcd60e51b815260206004820152601f60248201527f596f7520676574207265776172642077697468696e20323420686f7572732100604482015290519081900360640190fd5b336000818152601260209081526040808320429055600a5481517fb96a1f8b0000000000000000000000000000000000000000000000000000000081526004810195909552905192936001600160a01b039091169263b96a1f8b92602480840193919291829003018186803b15801561111e57600080fd5b505afa158015611132573d6000803e3d6000fd5b505050506040513d602081101561114857600080fd5b5051601354909150600a02810161115e81612467565b5050600160055550565b60135481565b33611177611ef2565b601155611182611be0565b6010556001600160a01b038116156111c95761119d816106a7565b6001600160a01b0382166000908152601960209081526040808320939093556011546018909152919020555b600d54421015611220576040805162461bcd60e51b815260206004820152600960248201527f6e6f742073746172740000000000000000000000000000000000000000000000604482015290519081900360640190fd5b60026005541415611278576040805162461bcd60e51b815260206004820152601f60248201527f5265656e7472616e637947756172643a207265656e7472616e742063616c6c00604482015290519081900360640190fd5b6002600555600854604080517f6352211e00000000000000000000000000000000000000000000000000000000815260048101859052905184926000926001600160a01b0390911691636352211e91602480820192602092909190829003018186803b1580156112e757600080fd5b505afa1580156112fb573d6000803e3d6000fd5b505050506040513d602081101561131157600080fd5b50516001600160a01b0316141561136f576040805162461bcd60e51b815260206004820152601460248201527f54686973206973206e6f74206120746f6b656e21000000000000000000000000604482015290519081900360640190fd5b60045474010000000000000000000000000000000000000000900460ff16156113df576040805162461bcd60e51b815260206004820152601060248201527f5061757361626c653a2070617573656400000000000000000000000000000000604482015290519081900360640190fd5b600754604080517f5840e6590000000000000000000000000000000000000000000000000000000081526004810186905290516000926001600160a01b031691635840e659916024808301926020929190829003018186803b15801561144457600080fd5b505afa158015611458573d6000803e3d6000fd5b505050506040513d602081101561146e57600080fd5b5051905042620151808201106114b55760405162461bcd60e51b8152600401808060200182810382526024815260200180612cad6024913960400191505060405180910390fd5b600954604080517f3130c3ae0000000000000000000000000000000000000000000000000000000081523360048201526024810187905242604482015290516001600160a01b0390921691633130c3ae91606480820192602092909190829003018186803b15801561152657600080fd5b505afa15801561153a573d6000803e3d6000fd5b505050506040513d602081101561155057600080fd5b505161158d5760405162461bcd60e51b8152600401808060200182810382526028815260200180612c1d6028913960400191505060405180910390fd5b600754604080517fe1e0485e0000000000000000000000000000000000000000000000000000000081526004810187905290516000926001600160a01b03169163e1e0485e916024808301926020929190829003018186803b1580156115f257600080fd5b505afa158015611606573d6000803e3d6000fd5b505050506040513d602081101561161c57600080fd5b505160145460ff9091169150600182141561163a575060145461165a565b816002141561164c575060155461165a565b816003141561165a57506016545b600754604080517f22142e6c0000000000000000000000000000000000000000000000000000000081526004810189905290516001600160a01b03909216916322142e6c9160248082019260009290919082900301818387803b1580156116c057600080fd5b505af11580156116d4573d6000803e3d6000fd5b505050506116e481600a02612467565b5050600160055550505050565b6116f96121d7565b6003546001600160a01b0390811691161461175b576040805162461bcd60e51b815260206004820181905260248201527f4f776e61626c653a2063616c6c6572206973206e6f7420746865206f776e6572604482015290519081900360640190fd5b61176d816001600160a01b0316612461565b6117be576040805162461bcd60e51b815260206004820152601b60248201527f4974206973206e6f7420636f6e74726163742061646472657373210000000000604482015290519081900360640190fd5b600b80547fffffffffffffffffffffffff0000000000000000000000000000000000000000166001600160a01b0392909216919091179055565b60045474010000000000000000000000000000000000000000900460ff1690565b6118216121d7565b6003546001600160a01b03908116911614611883576040805162461bcd60e51b815260206004820181905260248201527f4f776e61626c653a2063616c6c6572206973206e6f7420746865206f776e6572604482015290519081900360640190fd5b611895816001600160a01b0316612461565b6118e6576040805162461bcd60e51b815260206004820152601060248201527f4d75737420626520636f6e747261637400000000000000000000000000000000604482015290519081900360640190fd5b600a80547fffffffffffffffffffffffff0000000000000000000000000000000000000000166001600160a01b0392909216919091179055565b60165481565b6000546001600160a01b031681565b60175481565b600b546001600160a01b031681565b6001600160a01b031660009081526002602052604090205490565b61196d6121d7565b6003546001600160a01b039081169116146119cf576040805162461bcd60e51b815260206004820181905260248201527f4f776e61626c653a2063616c6c6572206973206e6f7420746865206f776e6572604482015290519081900360640190fd5b6003546040516000916001600160a01b0316907f8be0079c531659141344cd1fd0a4f28419497f9722a3daafe3b4186f6b6457e0908390a3600380547fffffffffffffffffffffffff0000000000000000000000000000000000000000169055565b6006546001600160a01b031681565b611a486121d7565b6003546001600160a01b03908116911614611aaa576040805162461bcd60e51b815260206004820181905260248201527f4f776e61626c653a2063616c6c6572206973206e6f7420746865206f776e6572604482015290519081900360640190fd5b6001600160a01b038216611b05576040805162461bcd60e51b815260206004820152600a60248201527f6d757374206e6f74203000000000000000000000000000000000000000000000604482015290519081900360640190fd5b60008111611b5a576040805162461bcd60e51b815260206004820152600960248201527f6d75737420677420300000000000000000000000000000000000000000000000604482015290519081900360640190fd5b6040516001600160a01b0383169082156108fc029083906000818181858888f19350505050158015611b90573d6000803e3d6000fd5b506040805182815290516001600160a01b038416917f542fa6bfee3b4746210fbdd1d83f9e49b65adde3639f8d8f165dd18347938af2919081900360200190a25050565b60155481565b600f5481565b6000611bee42600e54612606565b905090565b611bfb6121d7565b6003546001600160a01b03908116911614611c5d576040805162461bcd60e51b815260206004820181905260248201527f4f776e61626c653a2063616c6c6572206973206e6f7420746865206f776e6572604482015290519081900360640190fd5b610db461261c565b4290565b60186020526000908152604090205481565b601a546001600160a01b031681565b600d5481565b6003546001600160a01b031690565b33611ca8611ef2565b601155611cb3611be0565b6010556001600160a01b03811615611cfa57611cce816106a7565b6001600160a01b0382166000908152601960209081526040808320939093556011546018909152919020555b600d54421015611d51576040805162461bcd60e51b815260206004820152600960248201527f6e6f742073746172740000000000000000000000000000000000000000000000604482015290519081900360640190fd5b60026005541415611da9576040805162461bcd60e51b815260206004820152601f60248201527f5265656e7472616e637947756172643a207265656e7472616e742063616c6c00604482015290519081900360640190fd5b600260055581611e00576040805162461bcd60e51b815260206004820152600e60248201527f43616e6e6f74207374616b652030000000000000000000000000000000000000604482015290519081900360640190fd5b611e09826126f4565b60408051838152905133917f9e71bc8eea02a63969f509818f2dafb9254532904319f9dbda79b67bd34a5f3d919081900360200190a250506001600555565b600654604080517f70a0823100000000000000000000000000000000000000000000000000000000815230600482015290516000926001600160a01b0316916370a08231916024808301926020929190829003018186803b158015611eac57600080fd5b505afa158015611ec0573d6000803e3d6000fd5b505050506040513d6020811015611ed657600080fd5b5051905090565b6008546001600160a01b031681565b60105481565b6000611efc610801565b611f095750601154610805565b611bee611f37611f17610801565b61070f670de0b6b3a7640000610703600f546107036010546106ee611be0565b6011549063ffffffff61217d16565b6009546001600160a01b031681565b60115481565b600e5481565b600a546001600160a01b031681565b60145481565b611f7e6121d7565b6003546001600160a01b03908116911614611fe0576040805162461bcd60e51b815260206004820181905260248201527f4f776e61626c653a2063616c6c6572206973206e6f7420746865206f776e6572604482015290519081900360640190fd5b6001600160a01b0381166120255760405162461bcd60e51b8152600401808060200182810382526026815260200180612c456026913960400191505060405180910390fd5b6003546040516001600160a01b038084169216907f8be0079c531659141344cd1fd0a4f28419497f9722a3daafe3b4186f6b6457e090600090a3600380547fffffffffffffffffffffffff0000000000000000000000000000000000000000166001600160a01b0392909216919091179055565b60006120db83836040518060400160405280601e81526020017f536166654d6174683a207375627472616374696f6e206f766572666c6f770000815250612756565b9392505050565b6000826120f157506000610727565b828202828482816120fe57fe5b04146120db5760405162461bcd60e51b8152600401808060200182810382526021815260200180612c6b6021913960400191505060405180910390fd5b60006120db83836040518060400160405280601a81526020017f536166654d6174683a206469766973696f6e206279207a65726f0000000000008152506127ed565b6000828201838110156120db576040805162461bcd60e51b815260206004820152601b60248201527f536166654d6174683a206164646974696f6e206f766572666c6f770000000000604482015290519081900360640190fd5b3390565b6001546121ee908263ffffffff61209916565b60015533600090815260026020526040902054612211908263ffffffff61209916565b33600081815260026020526040812092909255905461223c916001600160a01b039091169083612852565b50565b600d5442111561231957600e54421061227657600c5461226690829063ffffffff61213b16565b600f556122716128d7565b6122c5565b600e5460009061228c904263ffffffff61209916565b905060006122a5600f54836120e290919063ffffffff16565b600c549091506122bf9061070f858463ffffffff61217d16565b600f5550505b426010819055600c546122de919063ffffffff61217d16565b600e556040805182815290517fba54ce5940e90276397dfc944292ed6a6a43aa64f9deb96d5f471bef49b78e149181900360200190a161223c565b600c5461232d90829063ffffffff61213b16565b600f55600d546010819055600c5461234b919063ffffffff61217d16565b600e556040805182815290517fba54ce5940e90276397dfc944292ed6a6a43aa64f9deb96d5f471bef49b78e149181900360200190a150565b60045474010000000000000000000000000000000000000000900460ff166123f3576040805162461bcd60e51b815260206004820152601460248201527f5061757361626c653a206e6f7420706175736564000000000000000000000000604482015290519081900360640190fd5b600480547fffffffffffffffffffffff00ffffffffffffffffffffffffffffffffffffffff1690557f5db9ee0a495bf2e6ff9c91a7834c1ba4fdd244a5e8aa4e537bd38aeae4b073aa6124446121d7565b604080516001600160a01b039092168252519081900360200190a1565b3b151590565b600d544210156124be576040805162461bcd60e51b815260206004820152600960248201527f6e6f742073746172740000000000000000000000000000000000000000000000604482015290519081900360640190fd5b6103e88110612514576040805162461bcd60e51b815260206004820152601160248201527f63616c20726577617264206572726f7221000000000000000000000000000000604482015290519081900360640190fd5b600061251f336106a7565b90508015610d3e57600061253f6103e861070f848663ffffffff6120e216565b9050612551828263ffffffff61209916565b33600090815260196020526040902055600b546017546125a6916001600160a01b03169061258d9060649061070f90869063ffffffff6120e216565b6006546001600160a01b0316919063ffffffff61285216565b6125c73361258d606461070f601754606403866120e290919063ffffffff16565b6040805182815260208101859052815133927fd6f2c8500df5b44f11e9e48b91ff9f1b9d81bc496d55570c2b1b75bf65243f51928290030190a2505050565b600081831061261557816120db565b5090919050565b60045474010000000000000000000000000000000000000000900460ff161561268c576040805162461bcd60e51b815260206004820152601060248201527f5061757361626c653a2070617573656400000000000000000000000000000000604482015290519081900360640190fd5b600480547fffffffffffffffffffffff00ffffffffffffffffffffffffffffffffffffffff16740100000000000000000000000000000000000000001790557f62e78cea01bee320cd4e420270b5ea74000d11b0c9f74754ebdbfc544b05a2586124446121d7565b600154612707908263ffffffff61217d16565b6001553360009081526002602052604090205461272a908263ffffffff61217d16565b33600081815260026020526040812092909255905461223c916001600160a01b0390911690308461293b565b600081848411156127e55760405162461bcd60e51b81526004018080602001828103825283818151815260200191508051906020019080838360005b838110156127aa578181015183820152602001612792565b50505050905090810190601f1680156127d75780820380516001836020036101000a031916815260200191505b509250505060405180910390fd5b505050900390565b6000818361283c5760405162461bcd60e51b81526020600482018181528351602484015283519092839260449091019190850190808383600083156127aa578181015183820152602001612792565b50600083858161284857fe5b0495945050505050565b604080516001600160a01b038416602482015260448082018490528251808303909101815260649091019091526020810180517bffffffffffffffffffffffffffffffffffffffffffffffffffffffff167fa9059cbb000000000000000000000000000000000000000000000000000000001790526128d29084906129c9565b505050565b600a601354106128f2576002601354816128ed57fe5b046013555b60145460141415610db457601480547ffffffffffffffffffffffffffffffffffffffffffffffffffffffffffffffffb9081019091556015805482019055601680549091019055565b604080516001600160a01b0380861660248301528416604482015260648082018490528251808303909101815260849091019091526020810180517bffffffffffffffffffffffffffffffffffffffffffffffffffffffff167f23b872dd000000000000000000000000000000000000000000000000000000001790526129c39085906129c9565b50505050565b6060612a1e826040518060400160405280602081526020017f5361666545524332303a206c6f772d6c6576656c2063616c6c206661696c6564815250856001600160a01b0316612a7a9092919063ffffffff16565b8051909150156128d257808060200190516020811015612a3d57600080fd5b50516128d25760405162461bcd60e51b815260040180806020018281038252602a815260200180612cd1602a913960400191505060405180910390fd5b6060612a898484600085612a91565b949350505050565b6060612a9c85612461565b612aed576040805162461bcd60e51b815260206004820152601d60248201527f416464726573733a2063616c6c20746f206e6f6e2d636f6e7472616374000000604482015290519081900360640190fd5b60006060866001600160a01b031685876040518082805190602001908083835b60208310612b4a57805182527fffffffffffffffffffffffffffffffffffffffffffffffffffffffffffffffe09092019160209182019101612b0d565b6001836020036101000a03801982511681845116808217855250505050505090500191505060006040518083038185875af1925050503d8060008114612bac576040519150601f19603f3d011682016040523d82523d6000602084013e612bb1565b606091505b50915091508115612bc5579150612a899050565b805115612bd55780518082602001fd5b60405162461bcd60e51b81526020600482018181528651602484015286518793919283926044019190850190808383600083156127aa57818101518382015260200161279256fe596f7520646f206e6f74206861766520726967687420746f20757365207468697320746f6b656e214f776e61626c653a206e6577206f776e657220697320746865207a65726f2061646472657373536166654d6174683a206d756c7469706c69636174696f6e206f766572666c6f7743616c6c6572206973206e6f742072657761726420646973747269627574696f6e54686973207469636b657420697320757365642077697468696e20323420686f757273215361666545524332303a204552433230206f7065726174696f6e20646964206e6f742073756363656564a26469706673582212207f777383c220ccc513276b1c72c41e41d0fc287323a13183d888ae45d581fa8c64736f6c63430006020033536166654d6174683a206d756c7469706c69636174696f6e206f766572666c6f77ba54ce5940e90276397dfc944292ed6a6a43aa64f9deb96d5f471bef49b78e14",
  "source": "pragma solidity ^0.6.0;\n\nimport \"./StakePool.sol\";\nimport \"../uniswap/IUniswapV2Factory.sol\";\nimport \"@openzeppelin/contracts/token/ERC20/IERC20.sol\";\n\n\ncontract HotPotLPStakePool is StakePool{\n    IUniswapV2Factory public uniswapFactory;\n\n    constructor(\n        address _hotpotNFT,\n        address _hotpotERC20,\n        address _loan,\n        address _reward,\n        address _invite,\n        uint256 _starttime,\n        uint256 duration,\n        uint256 _rewardAmount,\n        address _uniFactory,\n        address _ethAddress\n    ) public StakePool(_hotpotERC20,_hotpotNFT,_hotpotERC20,_loan,_reward,_invite,_starttime,duration,_rewardAmount){\n        uniswapFactory = IUniswapV2Factory(_uniFactory != address(0) ? _uniFactory : 0x5C69bEe701ef814a2B6a3EDD4B1652CB9cc5aA6f); \n\n        address pair = uniswapFactory.createPair(_ethAddress,_hotpotERC20);\n        tokenAddr = IERC20(pair);\n    }\n}",
  "sourcePath": "/Users/junhu/git/hotpotcontract/contracts/stake/HotPotLPStakePool.sol",
  "compiler": {
    "name": "solc",
    "version": "0.6.2+commit.bacdbe57.Emscripten.clang"
  },
  "schemaVersion": "3.3.0",
  "updatedAt": "2020-11-10T02:06:11.393Z",
  "networkType": "ethereum",
  "devdoc": {
    "methods": {
      "owner()": {
        "details": "Returns the address of the current owner."
      },
      "paused()": {
        "details": "Returns true if the contract is paused, and false otherwise."
      },
      "renounceOwnership()": {
        "details": "Leaves the contract without owner. It will not be possible to call `onlyOwner` functions anymore. Can only be called by the current owner.     * NOTE: Renouncing ownership will leave the contract without an owner, thereby removing any functionality that is only available to the owner."
      },
      "transferOwnership(address)": {
        "details": "Transfers ownership of the contract to a new account (`newOwner`). Can only be called by the current owner."
      }
    }
  },
  "userdoc": {
    "methods": {}
  }
}